{
  "contractName": "MultiRenter",
  "abi": [
    {
      "inputs": [
        {
          "internalType": "uint256",
          "name": "_listingFee",
          "type": "uint256"
        }
      ],
      "stateMutability": "nonpayable",
      "type": "constructor"
    },
    {
      "anonymous": false,
      "inputs": [
        {
          "indexed": true,
          "internalType": "address",
          "name": "previousOwner",
          "type": "address"
        },
        {
          "indexed": true,
          "internalType": "address",
          "name": "newOwner",
          "type": "address"
        }
      ],
      "name": "OwnershipTransferred",
      "type": "event"
    },
    {
      "anonymous": false,
      "inputs": [
        {
          "indexed": false,
          "internalType": "uint256",
          "name": "propertyId",
          "type": "uint256"
        }
      ],
      "name": "PropertyListed",
      "type": "event"
    },
    {
      "inputs": [
        {
          "internalType": "uint256",
          "name": "",
          "type": "uint256"
        }
      ],
      "name": "landlordAddresses",
      "outputs": [
        {
          "internalType": "address",
          "name": "",
          "type": "address"
        }
      ],
      "stateMutability": "view",
      "type": "function",
      "constant": true
    },
    {
      "inputs": [
        {
          "internalType": "address",
          "name": "",
          "type": "address"
        }
      ],
      "name": "landlords",
      "outputs": [
        {
          "internalType": "bool",
          "name": "",
          "type": "bool"
        }
      ],
      "stateMutability": "view",
      "type": "function",
      "constant": true
    },
    {
      "inputs": [],
      "name": "listingFee",
      "outputs": [
        {
          "internalType": "uint256",
          "name": "",
          "type": "uint256"
        }
      ],
      "stateMutability": "view",
      "type": "function",
      "constant": true
    },
    {
      "inputs": [],
      "name": "owner",
      "outputs": [
        {
          "internalType": "address",
          "name": "",
          "type": "address"
        }
      ],
      "stateMutability": "view",
      "type": "function",
      "constant": true
    },
    {
      "inputs": [
        {
          "internalType": "uint256",
          "name": "",
          "type": "uint256"
        }
      ],
      "name": "properties",
      "outputs": [
        {
          "internalType": "string",
          "name": "propertyAddress",
          "type": "string"
        },
        {
          "internalType": "uint256",
          "name": "rentalPeriod",
          "type": "uint256"
        },
        {
          "internalType": "uint256",
          "name": "price",
          "type": "uint256"
        },
        {
          "internalType": "enum MultiRenter.Status",
          "name": "status",
          "type": "uint8"
        }
      ],
      "stateMutability": "view",
      "type": "function",
      "constant": true
    },
    {
      "inputs": [],
      "name": "propertiesCount",
      "outputs": [
        {
          "internalType": "uint256",
          "name": "",
          "type": "uint256"
        }
      ],
      "stateMutability": "view",
      "type": "function",
      "constant": true
    },
    {
      "inputs": [
        {
          "internalType": "uint256",
          "name": "",
          "type": "uint256"
        }
      ],
      "name": "propertyIDs",
      "outputs": [
        {
          "internalType": "uint256",
          "name": "",
          "type": "uint256"
        }
      ],
      "stateMutability": "view",
      "type": "function",
      "constant": true
    },
    {
      "inputs": [
        {
          "internalType": "uint256",
          "name": "",
          "type": "uint256"
        }
      ],
      "name": "property_landlord",
      "outputs": [
        {
          "internalType": "address",
          "name": "",
          "type": "address"
        }
      ],
      "stateMutability": "view",
      "type": "function",
      "constant": true
    },
    {
      "inputs": [
        {
          "internalType": "uint256",
          "name": "",
          "type": "uint256"
        }
      ],
      "name": "property_renter",
      "outputs": [
        {
          "internalType": "address",
          "name": "",
          "type": "address"
        }
      ],
      "stateMutability": "view",
      "type": "function",
      "constant": true
    },
    {
      "inputs": [],
      "name": "renounceOwnership",
      "outputs": [],
      "stateMutability": "nonpayable",
      "type": "function"
    },
    {
      "inputs": [
        {
          "internalType": "address",
          "name": "",
          "type": "address"
        }
      ],
      "name": "renters",
      "outputs": [
        {
          "internalType": "bool",
          "name": "",
          "type": "bool"
        }
      ],
      "stateMutability": "view",
      "type": "function",
      "constant": true
    },
    {
      "inputs": [
        {
          "internalType": "address",
          "name": "newOwner",
          "type": "address"
        }
      ],
      "name": "transferOwnership",
      "outputs": [],
      "stateMutability": "nonpayable",
      "type": "function"
    },
    {
      "inputs": [],
      "name": "showEarnings",
      "outputs": [
        {
          "internalType": "uint256",
          "name": "",
          "type": "uint256"
        }
      ],
      "stateMutability": "view",
      "type": "function",
      "constant": true
    },
    {
      "inputs": [
        {
          "internalType": "uint256",
          "name": "_listingFee",
          "type": "uint256"
        }
      ],
      "name": "setListingFee",
      "outputs": [
        {
          "internalType": "uint256",
          "name": "",
          "type": "uint256"
        }
      ],
      "stateMutability": "nonpayable",
      "type": "function"
    },
    {
      "inputs": [
        {
          "internalType": "address",
          "name": "_addr",
          "type": "address"
        }
      ],
      "name": "isLandlord",
      "outputs": [
        {
          "internalType": "bool",
          "name": "",
          "type": "bool"
        }
      ],
      "stateMutability": "view",
      "type": "function",
      "constant": true
    },
    {
      "inputs": [],
      "name": "becomeLandlord",
      "outputs": [],
      "stateMutability": "nonpayable",
      "type": "function"
    },
    {
      "inputs": [
        {
          "internalType": "string",
          "name": "_propertyAddress",
          "type": "string"
        },
        {
          "internalType": "uint256",
          "name": "_rentalPeriod",
          "type": "uint256"
        },
        {
          "internalType": "uint256",
          "name": "_price",
          "type": "uint256"
        }
      ],
      "name": "listRentalProperty",
      "outputs": [
        {
          "internalType": "uint256",
          "name": "",
          "type": "uint256"
        }
      ],
      "stateMutability": "payable",
      "type": "function",
      "payable": true
    },
    {
      "inputs": [
        {
          "internalType": "uint256",
          "name": "_propertyId",
          "type": "uint256"
        }
      ],
      "name": "enter",
      "outputs": [],
      "stateMutability": "nonpayable",
      "type": "function"
    },
    {
      "inputs": [],
      "name": "getPropertiesAndLandlords",
      "outputs": [
        {
          "internalType": "uint256[]",
          "name": "",
          "type": "uint256[]"
        },
        {
          "internalType": "address[]",
          "name": "",
          "type": "address[]"
        }
      ],
      "stateMutability": "view",
      "type": "function",
      "constant": true
    },
    {
      "inputs": [
        {
          "internalType": "uint256",
          "name": "_propertyId",
          "type": "uint256"
        }
      ],
      "name": "rentProperty",
      "outputs": [],
      "stateMutability": "payable",
      "type": "function",
      "payable": true
    }
  ],
  "bytecode": "0x6080604052662386f26fc100006009553480156200001c57600080fd5b5060405162001f0a38038062001f0a833981810160405281019062000042919062000153565b62000062620000566200007060201b60201c565b6200007860201b60201c565b8060098190555050620001a3565b600033905090565b60008060009054906101000a900473ffffffffffffffffffffffffffffffffffffffff169050816000806101000a81548173ffffffffffffffffffffffffffffffffffffffff021916908373ffffffffffffffffffffffffffffffffffffffff1602179055508173ffffffffffffffffffffffffffffffffffffffff168173ffffffffffffffffffffffffffffffffffffffff167f8be0079c531659141344cd1fd0a4f28419497f9722a3daafe3b4186f6b6457e060405160405180910390a35050565b6000815190506200014d8162000189565b92915050565b6000602082840312156200016657600080fd5b600062000176848285016200013c565b91505092915050565b6000819050919050565b62000194816200017f565b8114620001a057600080fd5b50565b611d5780620001b36000396000f3fe60806040526004361061011f5760003560e01c8063715018a6116100a0578063e1e878fa11610064578063e1e878fa146103f3578063ec001f0d1461041f578063f2fde38b1461045c578063f7b1080814610485578063fa61a5e9146104c55761011f565b8063715018a61461032f5780638da5cb5b146103465780639d36ab6c14610371578063a59f3e0c1461038d578063c1ae85fe146103b65761011f565b806320f99904116100e757806320f99904146102435780632c4230e91461025a578063483cb1de1461028a578063644a1370146102c75780636a1b7ecc146103045761011f565b80630318b74c1461012457806311447e8714610161578063131dbd091461018c578063155eed62146101c957806319af2ba614610206575b600080fd5b34801561013057600080fd5b5061014b600480360381019061014691906113ce565b6104f0565b604051610158919061188a565b60405180910390f35b34801561016d57600080fd5b50610176610546565b60405161018391906119d1565b60405180910390f35b34801561019857600080fd5b506101b360048036038101906101ae919061145e565b61054c565b6040516101c091906119d1565b60405180910390f35b3480156101d557600080fd5b506101f060048036038101906101eb919061145e565b6105db565b6040516101fd9190611838565b60405180910390f35b34801561021257600080fd5b5061022d6004803603810190610228919061145e565b61060e565b60405161023a9190611838565b60405180910390f35b34801561024f57600080fd5b50610258610641565b005b610274600480360381019061026f91906113f7565b61069b565b60405161028191906119d1565b60405180910390f35b34801561029657600080fd5b506102b160048036038101906102ac91906113ce565b6109a9565b6040516102be919061188a565b60405180910390f35b3480156102d357600080fd5b506102ee60048036038101906102e991906113ce565b6109c9565b6040516102fb919061188a565b60405180910390f35b34801561031057600080fd5b506103196109e9565b60405161032691906119d1565b60405180910390f35b34801561033b57600080fd5b506103446109ef565b005b34801561035257600080fd5b5061035b610a77565b6040516103689190611838565b60405180910390f35b61038b6004803603810190610386919061145e565b610aa0565b005b34801561039957600080fd5b506103b460048036038101906103af919061145e565b610dcf565b005b3480156103c257600080fd5b506103dd60048036038101906103d8919061145e565b610ebc565b6040516103ea91906119d1565b60405180910390f35b3480156103ff57600080fd5b50610408610ee0565b604051610416929190611853565b60405180910390f35b34801561042b57600080fd5b506104466004803603810190610441919061145e565b610fc9565b6040516104539190611838565b60405180910390f35b34801561046857600080fd5b50610483600480360381019061047e91906113ce565b611008565b005b34801561049157600080fd5b506104ac60048036038101906104a7919061145e565b611100565b6040516104bc94939291906118a5565b60405180910390f35b3480156104d157600080fd5b506104da6111c5565b6040516104e791906119d1565b60405180910390f35b6000600260008373ffffffffffffffffffffffffffffffffffffffff1673ffffffffffffffffffffffffffffffffffffffff16815260200190815260200160002060009054906101000a900460ff169050919050565b60015481565b60006105566111cd565b73ffffffffffffffffffffffffffffffffffffffff16610574610a77565b73ffffffffffffffffffffffffffffffffffffffff16146105ca576040517f08c379a00000000000000000000000000000000000000000000000000000000081526004016105c190611971565b60405180910390fd5b816009819055506009549050919050565b60086020528060005260406000206000915054906101000a900473ffffffffffffffffffffffffffffffffffffffff1681565b60076020528060005260406000206000915054906101000a900473ffffffffffffffffffffffffffffffffffffffff1681565b6001600260003373ffffffffffffffffffffffffffffffffffffffff1673ffffffffffffffffffffffffffffffffffffffff16815260200190815260200160002060006101000a81548160ff021916908315150217905550565b600060011515600260003373ffffffffffffffffffffffffffffffffffffffff1673ffffffffffffffffffffffffffffffffffffffff16815260200190815260200160002060009054906101000a900460ff16151514610730576040517f08c379a000000000000000000000000000000000000000000000000000000000815260040161072790611991565b60405180910390fd5b600954341015610775576040517f08c379a000000000000000000000000000000000000000000000000000000000815260040161076c906118f1565b60405180910390fd5b6040518060800160405280858152602001848152602001838152602001600060018111156107cc577f4e487b7100000000000000000000000000000000000000000000000000000000600052602160045260246000fd5b8152506004600060015481526020019081526020016000206000820151816000019080519060200190610800929190611299565b50602082015181600101556040820151816002015560608201518160030160006101000a81548160ff02191690836001811115610866577f4e487b7100000000000000000000000000000000000000000000000000000000600052602160045260246000fd5b02179055509050503360076000600154815260200190815260200160002060006101000a81548173ffffffffffffffffffffffffffffffffffffffff021916908373ffffffffffffffffffffffffffffffffffffffff160217905550600560015490806001815401808255809150506001900390600052602060002001600090919091909150556006339080600181540180825580915050600190039060005260206000200160009091909190916101000a81548173ffffffffffffffffffffffffffffffffffffffff021916908373ffffffffffffffffffffffffffffffffffffffff1602179055507fef524b4359850968de97539269ca0e418ebc8d509192f02c0a77c00e8326505860015460405161098191906119d1565b60405180910390a1600180546109979190611adb565b60018190555060015490509392505050565b60026020528060005260406000206000915054906101000a900460ff1681565b60036020528060005260406000206000915054906101000a900460ff1681565b60095481565b6109f76111cd565b73ffffffffffffffffffffffffffffffffffffffff16610a15610a77565b73ffffffffffffffffffffffffffffffffffffffff1614610a6b576040517f08c379a0000000000000000000000000000000000000000000000000000000008152600401610a6290611971565b60405180910390fd5b610a7560006111d5565b565b60008060009054906101000a900473ffffffffffffffffffffffffffffffffffffffff16905090565b806000600460008381526020019081526020016000206000018054610ac490611be0565b80601f0160208091040260200160405190810160405280929190818152602001828054610af090611be0565b8015610b3d5780601f10610b1257610100808354040283529160200191610b3d565b820191906000526020600020905b815481529060010190602001808311610b2057829003601f168201915b505050505090506000815111610b88576040517f08c379a0000000000000000000000000000000000000000000000000000000008152600401610b7f90611931565b60405180910390fd5b8260006001811115610bc3577f4e487b7100000000000000000000000000000000000000000000000000000000600052602160045260246000fd5b6004600083815260200190815260200160002060030160009054906101000a900460ff166001811115610c1f577f4e487b7100000000000000000000000000000000000000000000000000000000600052602160045260246000fd5b14610c5f576040517f08c379a0000000000000000000000000000000000000000000000000000000008152600401610c56906119b1565b60405180910390fd5b836004600082815260200190815260200160002060020154341015610cb9576040517f08c379a0000000000000000000000000000000000000000000000000000000008152600401610cb090611951565b60405180910390fd5b6001600360003373ffffffffffffffffffffffffffffffffffffffff1673ffffffffffffffffffffffffffffffffffffffff16815260200190815260200160002060006101000a81548160ff021916908315150217905550336008600087815260200190815260200160002060006101000a81548173ffffffffffffffffffffffffffffffffffffffff021916908373ffffffffffffffffffffffffffffffffffffffff16021790555060016004600087815260200190815260200160002060030160006101000a81548160ff02191690836001811115610dc3577f4e487b7100000000000000000000000000000000000000000000000000000000600052602160045260246000fd5b02179055505050505050565b806000600460008381526020019081526020016000206000018054610df390611be0565b80601f0160208091040260200160405190810160405280929190818152602001828054610e1f90611be0565b8015610e6c5780601f10610e4157610100808354040283529160200191610e6c565b820191906000526020600020905b815481529060010190602001808311610e4f57829003601f168201915b505050505090506000815111610eb7576040517f08c379a0000000000000000000000000000000000000000000000000000000008152600401610eae90611931565b60405180910390fd5b505050565b60058181548110610ecc57600080fd5b906000526020600020016000915090505481565b6060806005600681805480602002602001604051908101604052809291908181526020018280548015610f3257602002820191906000526020600020905b815481526020019060010190808311610f1e575b5050505050915080805480602002602001604051908101604052809291908181526020018280548015610fba57602002820191906000526020600020905b8160009054906101000a900473ffffffffffffffffffffffffffffffffffffffff1673ffffffffffffffffffffffffffffffffffffffff1681526020019060010190808311610f70575b50505050509050915091509091565b60068181548110610fd957600080fd5b906000526020600020016000915054906101000a900473ffffffffffffffffffffffffffffffffffffffff1681565b6110106111cd565b73ffffffffffffffffffffffffffffffffffffffff1661102e610a77565b73ffffffffffffffffffffffffffffffffffffffff1614611084576040517f08c379a000000000000000000000000000000000000000000000000000000000815260040161107b90611971565b60405180910390fd5b600073ffffffffffffffffffffffffffffffffffffffff168173ffffffffffffffffffffffffffffffffffffffff1614156110f4576040517f08c379a00000000000000000000000000000000000000000000000000000000081526004016110eb90611911565b60405180910390fd5b6110fd816111d5565b50565b600460205280600052604060002060009150905080600001805461112390611be0565b80601f016020809104026020016040519081016040528092919081815260200182805461114f90611be0565b801561119c5780601f106111715761010080835404028352916020019161119c565b820191906000526020600020905b81548152906001019060200180831161117f57829003601f168201915b5050505050908060010154908060020154908060030160009054906101000a900460ff16905084565b600047905090565b600033905090565b60008060009054906101000a900473ffffffffffffffffffffffffffffffffffffffff169050816000806101000a81548173ffffffffffffffffffffffffffffffffffffffff021916908373ffffffffffffffffffffffffffffffffffffffff1602179055508173ffffffffffffffffffffffffffffffffffffffff168173ffffffffffffffffffffffffffffffffffffffff167f8be0079c531659141344cd1fd0a4f28419497f9722a3daafe3b4186f6b6457e060405160405180910390a35050565b8280546112a590611be0565b90600052602060002090601f0160209004810192826112c7576000855561130e565b82601f106112e057805160ff191683800117855561130e565b8280016001018555821561130e579182015b8281111561130d5782518255916020019190600101906112f2565b5b50905061131b919061131f565b5090565b5b80821115611338576000816000905550600101611320565b5090565b600061134f61134a84611a1d565b6119ec565b90508281526020810184848401111561136757600080fd5b611372848285611b9e565b509392505050565b60008135905061138981611cf3565b92915050565b600082601f8301126113a057600080fd5b81356113b084826020860161133c565b91505092915050565b6000813590506113c881611d0a565b92915050565b6000602082840312156113e057600080fd5b60006113ee8482850161137a565b91505092915050565b60008060006060848603121561140c57600080fd5b600084013567ffffffffffffffff81111561142657600080fd5b6114328682870161138f565b9350506020611443868287016113b9565b9250506040611454868287016113b9565b9150509250925092565b60006020828403121561147057600080fd5b600061147e848285016113b9565b91505092915050565b600061149383836114b7565b60208301905092915050565b60006114ab838361181a565b60208301905092915050565b6114c081611b31565b82525050565b6114cf81611b31565b82525050565b60006114e082611a6d565b6114ea8185611aa8565b93506114f583611a4d565b8060005b8381101561152657815161150d8882611487565b975061151883611a8e565b9250506001810190506114f9565b5085935050505092915050565b600061153e82611a78565b6115488185611ab9565b935061155383611a5d565b8060005b8381101561158457815161156b888261149f565b975061157683611a9b565b925050600181019050611557565b5085935050505092915050565b61159a81611b43565b82525050565b6115a981611b8c565b82525050565b60006115ba82611a83565b6115c48185611aca565b93506115d4818560208601611bad565b6115dd81611cce565b840191505092915050565b60006115f5601c83611aca565b91507f596f75206d7573742070617920746865206c697374696e6720666565000000006000830152602082019050919050565b6000611635602683611aca565b91507f4f776e61626c653a206e6577206f776e657220697320746865207a65726f206160008301527f64647265737300000000000000000000000000000000000000000000000000006020830152604082019050919050565b600061169b601b83611aca565b91507f546869732070726f706572747920646f65736e277420657869737400000000006000830152602082019050919050565b60006116db601b83611aca565b91507f596f75206d75737420706179207468652072656e74616c2066656500000000006000830152602082019050919050565b600061171b602083611aca565b91507f4f776e61626c653a2063616c6c6572206973206e6f7420746865206f776e65726000830152602082019050919050565b600061175b602483611aca565b91507f4f6e6c792061206c616e646c6f72642063616e2063616c6c2074686973206d6560008301527f74686f64000000000000000000000000000000000000000000000000000000006020830152604082019050919050565b60006117c1602383611aca565b91507f50726f7065727479206d757374206e6f7420626520616c72656164792072656e60008301527f74656400000000000000000000000000000000000000000000000000000000006020830152604082019050919050565b61182381611b82565b82525050565b61183281611b82565b82525050565b600060208201905061184d60008301846114c6565b92915050565b6000604082019050818103600083015261186d8185611533565b9050818103602083015261188181846114d5565b90509392505050565b600060208201905061189f6000830184611591565b92915050565b600060808201905081810360008301526118bf81876115af565b90506118ce6020830186611829565b6118db6040830185611829565b6118e860608301846115a0565b95945050505050565b6000602082019050818103600083015261190a816115e8565b9050919050565b6000602082019050818103600083015261192a81611628565b9050919050565b6000602082019050818103600083015261194a8161168e565b9050919050565b6000602082019050818103600083015261196a816116ce565b9050919050565b6000602082019050818103600083015261198a8161170e565b9050919050565b600060208201905081810360008301526119aa8161174e565b9050919050565b600060208201905081810360008301526119ca816117b4565b9050919050565b60006020820190506119e66000830184611829565b92915050565b6000604051905081810181811067ffffffffffffffff82111715611a1357611a12611c9f565b5b8060405250919050565b600067ffffffffffffffff821115611a3857611a37611c9f565b5b601f19601f8301169050602081019050919050565b6000819050602082019050919050565b6000819050602082019050919050565b600081519050919050565b600081519050919050565b600081519050919050565b6000602082019050919050565b6000602082019050919050565b600082825260208201905092915050565b600082825260208201905092915050565b600082825260208201905092915050565b6000611ae682611b82565b9150611af183611b82565b9250827fffffffffffffffffffffffffffffffffffffffffffffffffffffffffffffffff03821115611b2657611b25611c12565b5b828201905092915050565b6000611b3c82611b62565b9050919050565b60008115159050919050565b6000819050611b5d82611cdf565b919050565b600073ffffffffffffffffffffffffffffffffffffffff82169050919050565b6000819050919050565b6000611b9782611b4f565b9050919050565b82818337600083830152505050565b60005b83811015611bcb578082015181840152602081019050611bb0565b83811115611bda576000848401525b50505050565b60006002820490506001821680611bf857607f821691505b60208210811415611c0c57611c0b611c70565b5b50919050565b7f4e487b7100000000000000000000000000000000000000000000000000000000600052601160045260246000fd5b7f4e487b7100000000000000000000000000000000000000000000000000000000600052602160045260246000fd5b7f4e487b7100000000000000000000000000000000000000000000000000000000600052602260045260246000fd5b7f4e487b7100000000000000000000000000000000000000000000000000000000600052604160045260246000fd5b6000601f19601f8301169050919050565b60028110611cf057611cef611c41565b5b50565b611cfc81611b31565b8114611d0757600080fd5b50565b611d1381611b82565b8114611d1e57600080fd5b5056fea26469706673582212201be62d15564701dff58b4f1a8d38210ef08815b6e19ddcfd7fc30fcaf388005e64736f6c63430008000033",
  "immutableReferences": {},
  "source": "// SPDX-License-Identifier: GPL-3.0\r\npragma solidity 0.8.0;\r\n\r\nimport \"@openzeppelin/contracts/access/Ownable.sol\";\r\n\r\n/// @title MultiRenter Smart Contract Consensys Final Project\r\n/// @author idleworx\r\n/// @notice This is a property marketplace rental simulator using the blockchain\r\ncontract MultiRenter is Ownable{\r\n\r\n    // **************** variables *********************************************\r\n    \r\n    uint public propertiesCount; //total properties listed and serves as current property ID when adding a new one\r\n   \r\n    mapping (address => bool) public landlords; //landlord wallet address -> landlord id \r\n    mapping (address => bool) public renters;   //renter wallet address -> renter id\r\n   \r\n    mapping (uint => RentalProperty) public properties; //property id -> rental details\r\n    \r\n    uint[]      public propertyIDs;            // list of all property IDs (for UI rendering)\r\n    address[]   public landlordAddresses;   // list of all landlord IDs (for UI rendering)\r\n    \r\n    mapping (uint => address) public property_landlord;      //tracks property ID -> landlord address\r\n    mapping (uint => address) public property_renter;        //tracks property ID -> renter address\r\n    \r\n    // address owner; //contract owner\r\n    \r\n    uint public listingFee = 10000000000000000; //in wei (0.01 ETH) \r\n    \r\n    enum Status {\r\n        Available,\r\n        Rented\r\n    }\r\n    \r\n    struct RentalProperty {\r\n        string propertyAddress; //real world address\r\n        uint rentalPeriod; //how long it will be rented for (not currently implemented)\r\n        uint price;  //rental price in wei\r\n        Status status; //Available or Rented\r\n    }\r\n  \r\n    event PropertyListed(uint propertyId);\r\n    \r\n    /// @notice Deploy contract. \r\n    /// @param _listingFee - Number in wei that will represent the fee someone has to pay to list a property. \r\n    constructor(uint _listingFee){\r\n        // owner = msg.sender;\r\n        listingFee = _listingFee;  //set default listing fee to list a single property\r\n    }\r\n\r\n    // /// @notice Ensures only the contract owner can call a function\r\n    // modifier onlyOwner{\r\n    //     require(msg.sender == owner, \"Only the contract owner can call this method!\"); \r\n    //     _; \r\n    // }\r\n    \r\n    /// @notice Ensures only a registered landlord can call a function\r\n    modifier onlyLandlord{\r\n        require(landlords[msg.sender]==true,\"Only a landlord can call this method\");\r\n        _;\r\n    }\r\n    \r\n    /// @notice Ensures a property exists, by minimally checking it has a physical address \r\n    /// @param _propertyID the unique property id like 0, 20, or 234\r\n    modifier propertyExists(uint _propertyID){\r\n        bytes memory propertyAddress = bytes(properties[_propertyID].propertyAddress); \r\n        require(propertyAddress.length > 0, \"This property doesn't exist\");\r\n        _;\r\n    }\r\n    \r\n    /// @notice Ensures the sender has sent enough ether with the transaction to rent a property\r\n    /// @dev _propertyID the unique property id\r\n    modifier paidEnoughRentalFee(uint _propertyID) {\r\n        require(msg.value >= properties[_propertyID].price, \"You must pay the rental fee\"); //TODO: FUTURE: we should be nice and refund overpayment here to the renter\r\n        _;\r\n    }\r\n    \r\n    /// @notice Ensures a property is not already rented by someone else \r\n    /// @param _propertyID unique property id\r\n    modifier isNotRented(uint _propertyID){\r\n        require(properties[_propertyID].status==Status.Available, \"Property must not be already rented\");\r\n        _;\r\n    }\r\n    \r\n    /// @notice Ensures the listing fee has been paid\r\n    modifier paidEnoughFee() { \r\n        require(msg.value >= listingFee, \"You must pay the listing fee\"); //TODO: FUTURE: we should be nice and refund overpayment here to the landlord\r\n        _;\r\n    }\r\n    \r\n    // ------------------------ functions ------------------------\r\n    \r\n    /// @notice Shows the current earnings of this contract (all fees paid to it for listing and renting)\r\n    /// @return Balance of this contract in wei\r\n    function showEarnings() public view returns(uint){\r\n        return address(this).balance;    \r\n    }\r\n    \r\n    /// @notice Sets the default listing fee. Only the contract owner can modify this. \r\n    /// @param _listingFee property listing fee in wei\r\n    /// @return current listing fee\r\n    function setListingFee(uint _listingFee) public onlyOwner returns(uint){\r\n        //only owner can change this fee\r\n        listingFee = _listingFee;\r\n        return listingFee;\r\n    }\r\n    \r\n    /// @notice Checks if an address is a landlord. Only landlords can list new properties for rent.\r\n    /// @dev not really needed since we have the landlords public variable. just a convenience method\r\n    /// @param _addr wallet address\r\n    /// @return true/false if the address is a landlord\r\n    function isLandlord(address _addr) public view returns (bool) {\r\n        return landlords[_addr];\r\n    }\r\n\r\n    \r\n    /// @notice Registers transaction sender as a landlord\r\n    function becomeLandlord() public {\r\n        landlords[msg.sender]=true;\r\n    }\r\n        \r\n    \r\n    /// @notice Lists a new property on the marketplace. Only landlords can list new properties for rent.\r\n    /// @dev not really needed since we have the landlords public variable. just a convenience method\r\n    /// @param _propertyAddress The real world property address: 14th North St, Ft Lauderdale, FL 20991\r\n    /// @param _rentalPeriod For how long (in days) this property can be rented: Ex: 30 \r\n    /// @param _price The rental price (in wei) of this property. \r\n    /// @dev The _rentalPeriod is not implemented, didn't have time. Ideally this would hook into chainlink or some other way (other than a block count) to determine when the rental period expires. \r\n    /// @return the ID of the newly listed property\r\n    function listRentalProperty(string memory _propertyAddress, uint _rentalPeriod, uint _price) public payable onlyLandlord paidEnoughFee returns (uint){\r\n        \r\n        properties[propertiesCount] = RentalProperty({ //create new property and give it an id\r\n            propertyAddress: _propertyAddress,\r\n            rentalPeriod: _rentalPeriod,\r\n            price: _price,\r\n            status: Status.Available\r\n        });\r\n        \r\n        property_landlord[propertiesCount] = msg.sender; //track property id owned by an address\r\n        \r\n        propertyIDs.push(propertiesCount); //keep a list of all property ids\r\n        landlordAddresses.push(msg.sender);//keep a list of all landlords \r\n        \r\n        emit PropertyListed(propertiesCount);\r\n         \r\n        propertiesCount = propertiesCount + 1;\r\n        \r\n        return propertiesCount;\r\n    }\r\n    \r\n    function enter(uint _propertyId) public propertyExists(_propertyId) {\r\n        //TODO: future. handles access to a property for multiple overlapping renters on alternate days\r\n    }\r\n\r\n    /// @notice Returns 2 lists of the same size containing all property ids and all landlords who own them\r\n    /// @dev This is used to be able to render all properties in the Dapp's UI\r\n    /// @return 2 uint[] lists containing the property ids and landlord addresses that own them\r\n    function getPropertiesAndLandlords() public view returns (uint[] memory, address[] memory){\r\n        return (propertyIDs, landlordAddresses);\r\n    }\r\n    \r\n    /// @notice Allows someonea to rent the property by paying the rental fee. Only proeprties that are not already Rented can be rented.\r\n    /// @param _propertyId the unique property id to rent\r\n    /// @dev for now we allow the owner to also rent his own property. maybe they like spending money on gas fees? \r\n    function rentProperty(uint _propertyId) public payable propertyExists(_propertyId) isNotRented(_propertyId) paidEnoughRentalFee(_propertyId){\r\n        renters[msg.sender]=true;\r\n        property_renter[_propertyId] = msg.sender;    \r\n        properties[_propertyId].status = Status.Rented;\r\n    }\r\n\r\n    \r\n}",
  "sourcePath": "c:\\code\\Tutorials\\consensys_blockchain_course_2021\\blockchain-developer-bootcamp-final-project\\contracts\\MultiRenter.sol",
  "compiler": {
    "name": "solc",
    "version": "0.8.0+commit.c7dfd78e.Emscripten.clang"
  },
  "schemaVersion": "3.4.3",
  "updatedAt": "2021-11-24T19:31:54.388Z",
  "networkType": "ethereum",
  "devdoc": {
    "author": "idleworx",
    "kind": "dev",
    "methods": {
      "constructor": {
        "params": {
          "_listingFee": "- Number in wei that will represent the fee someone has to pay to list a property. "
        }
      },
      "getPropertiesAndLandlords()": {
        "details": "This is used to be able to render all properties in the Dapp's UI",
        "returns": {
          "_0": "2 uint[] lists containing the property ids and landlord addresses that own them"
        }
      },
      "isLandlord(address)": {
        "details": "not really needed since we have the landlords public variable. just a convenience method",
        "params": {
          "_addr": "wallet address"
        },
        "returns": {
          "_0": "true/false if the address is a landlord"
        }
      },
      "listRentalProperty(string,uint256,uint256)": {
        "details": "not really needed since we have the landlords public variable. just a convenience methodThe _rentalPeriod is not implemented, didn't have time. Ideally this would hook into chainlink or some other way (other than a block count) to determine when the rental period expires. ",
        "params": {
          "_price": "The rental price (in wei) of this property. ",
          "_propertyAddress": "The real world property address: 14th North St, Ft Lauderdale, FL 20991",
          "_rentalPeriod": "For how long (in days) this property can be rented: Ex: 30 "
        },
        "returns": {
          "_0": "the ID of the newly listed property"
        }
      },
      "owner()": {
        "details": "Returns the address of the current owner."
      },
      "renounceOwnership()": {
        "details": "Leaves the contract without owner. It will not be possible to call `onlyOwner` functions anymore. Can only be called by the current owner. NOTE: Renouncing ownership will leave the contract without an owner, thereby removing any functionality that is only available to the owner."
      },
      "rentProperty(uint256)": {
        "details": "for now we allow the owner to also rent his own property. maybe they like spending money on gas fees? ",
        "params": {
          "_propertyId": "the unique property id to rent"
        }
      },
      "setListingFee(uint256)": {
        "params": {
          "_listingFee": "property listing fee in wei"
        },
        "returns": {
          "_0": "current listing fee"
        }
      },
      "showEarnings()": {
        "returns": {
          "_0": "Balance of this contract in wei"
        }
      },
      "transferOwnership(address)": {
        "details": "Transfers ownership of the contract to a new account (`newOwner`). Can only be called by the current owner."
      }
    },
    "title": "MultiRenter Smart Contract Consensys Final Project",
    "version": 1
  },
  "userdoc": {
    "kind": "user",
    "methods": {
      "becomeLandlord()": {
        "notice": "Registers transaction sender as a landlord"
      },
      "constructor": {
        "notice": "Deploy contract. "
      },
      "getPropertiesAndLandlords()": {
        "notice": "Returns 2 lists of the same size containing all property ids and all landlords who own them"
      },
      "isLandlord(address)": {
        "notice": "Checks if an address is a landlord. Only landlords can list new properties for rent."
      },
      "listRentalProperty(string,uint256,uint256)": {
        "notice": "Lists a new property on the marketplace. Only landlords can list new properties for rent."
      },
      "rentProperty(uint256)": {
        "notice": "Allows someonea to rent the property by paying the rental fee. Only proeprties that are not already Rented can be rented."
      },
      "setListingFee(uint256)": {
        "notice": "Sets the default listing fee. Only the contract owner can modify this. "
      },
      "showEarnings()": {
        "notice": "Shows the current earnings of this contract (all fees paid to it for listing and renting)"
      }
    },
    "notice": "This is a property marketplace rental simulator using the blockchain",
    "version": 1
  }
}